:020000040000FA
:060000000A128A110E280D
:10000800FE00030EF5000408F6000A08F7000A12BD
:100018008A111E280A128A111128F801F901FA0119
:10002800FB01FC01FD0183120313A50183010A12E0
:100038008A1190280B1D2128222855286430831204
:10004800031381000B11851005114528851405112E
:1000580079080A128A11FB200A128A1183120313E3
:100068008700FD01FD0A5528851005157A080A1232
:100078008A11FB200A128A11831203138700FD01DB
:1000880055287D08F300F4017408003A03194D2837
:1000980055287308003A03192A28013A0319382801
:1000A8005528831203130C1F5A285B287228033023
:1000B800F300F30B5D28602808300A128A11AC217E
:1000C8000A128A11F3007308FC000330F300F30BE3
:1000D8006B286E28831203130C139F140B1C7528AE
:1000E80076288728061879287A287F280914080886
:1000F800013E8800862886188228832886280808D2
:10010800FF3E88000B1077088A0076088400750E79
:100118008300FE0E7E0E090001300A128A11582152
:100128000A128A11013083160317880089010914FD
:10013800831603138501073086008701880189012A
:1001480083120313850186018701880189018316BB
:1001580003138113151495143F30831203139F055D
:100168001F111F14033083120313A300A30BBA2813
:10017800831203139F14831603139F121F129F13D6
:100188008112811101118114011464308312031347
:1001980081000B118B178B160B178B158316031306
:1001A80016149614FD017C08F0398312A300230865
:1001B800FB007C080F39A3002308FA007B08A30082
:1001C80004300310A30CFF3E031DE5282308A400F8
:1001D8002408F9007C0808020318F328F428F628F4
:1001E8008515D7288511D7280A128A110E28F200FA
:1001F8001D293F305729063057295B3057294F3082
:100208005729663057296D3057297D3057290730CF
:1002180057297F3057296F305729773057297C3035
:100228005729393057295E30572979305729713085
:1002380057297208F000F1017108003A03192529BD
:1002480057297008003A0319FD28013A0319FF28B5
:10025800033A03190129013A03190329073A031933
:100268000529013A03190729033A03190929013A0B
:1002780003190B290F3A03190D29013A03190F29FC
:10028800033A03191129013A03191329073A0319E3
:100298001529013A03191729033A03191929013AAB
:1002A80003191B295729080083120313A200862962
:1002B800831603130F128F120F13A8298316031323
:1002C8000F168F120F13831603130F128F160F13A7
:1002D800831603130F168F160F13831603130F12AB
:1002E8008F120F17831603130F168F120F1783160B
:1002F80003130F128F160F17831603130F168F167B
:100308000F17A8292208A000A1012108003A031903
:100318008E29A8292008013A03197129033A0319DB
:100328007629063A03197B290C3A03198029173ACA
:1003380003195C292D3A03196C294F3A03196229CC
:10034800873A03196729A829831603130F1408008D
:10035800F1007108F000F00DF00D831203131F086F
:0C0368007006C33970069F001E080800D4
:04400E00D420FF3F7C
:00000001FF
