:020000040000FA
:060000000A128A110C280F
:10000800FE00030EF0000A08F1000A128A112B2BD9
:100018000A128A110F280A128A1148230A128A1111
:10002800B400B201B301FA01FB0183010A128A117B
:10003800482A83120313A4002408F800F901780859
:10004800AB007908AC006430F2000030F3002C08F3
:10005800F5002B08F4000A128A1199210A128A1154
:10006800730883120313AA007208A9002A08F30070
:100078002908F2009C30F400FF30F5000A128A11BA
:10008800A1220A128A11831203132B087207AB00EC
:100098002C0803182C0A7307AC000A30F200003051
:1000A800F3002C08F5002B08F4000A128A11992194
:1000B8000A128A11730883120313A8007208A70092
:1000C8002808F3002708F200F630F400FF30F500A6
:1000D8000A128A11A1220A128A11831203132B0809
:1000E8007207A5002C0803182C0A7307A6002A0813
:1000F800F3002908F2000A128A11B6200A128A119E
:100108000D30F900FB30F800F80B8828F90B882827
:100118008D28831203132808F3002708F2000A1217
:100128008A11B6200A128A110D30F900FB30F80046
:10013800F80B9C28F90B9C28A12883120313260886
:10014800F3002508F2000A128A11B6200A128A1151
:100158000D30F900FB30F800F80BB028F90BB02887
:10016800B528080072037304031DBB28BC28C128E6
:1001780031308312031399002C290230720673045C
:10018800031DC728C828CD283230831203139900CD
:100198002C29033072067304031DD328D428D928C8
:1001A80033308312031399002C2904307206730428
:1001B800031DDF28E028E528343083120313990053
:1001C8002C29053072067304031DEB28EC28F1284E
:1001D80035308312031399002C29063072067304F4
:1001E800031DF728F828FD283630831203139900D9
:1001F8002C29073072067304031D032904290929D1
:1002080037308312031399002C29083072067304BF
:10021800031D0F291029152938308312031399005B
:100228002C29093072067304031D1B291C29212956
:1002380039308312031399002C2972087304031DA3
:10024800262927292C2930308312031399002C29B9
:10025800080083120313B00001300A128A117822B1
:100268000A128A11033083120313AF009730AE00CD
:10027800AE0B3C29AF0B3C298312031330080A123A
:100288008A111D200A128A11033083120313AF004A
:100298009730AE00AE0B4E29AF0B4E2911300A1223
:1002A8008A1178220A128A11033083120313AF00CD
:1002B8009730AE00AE0B5E29AF0B5E2909300A12EB
:1002C8008A1178220A128A11033083120313AF00AD
:1002D8009730AE00AE0B6E29AF0B6E298312031355
:1002E8002D080A128A111D200A128A11033083125E
:1002F8000313AF009730AE00AE0B8029AF0B8029F7
:1003080011300A128A1178220A128A1103308312D4
:100318000313AF009730AE00AE0B9029AF0B9029B6
:100328000D30831203139900080083120313A101EF
:10033800F31F9F29A029A729F209F309F20A031933
:10034800F30AA101A10AF51FAA29AB29B429F409C6
:10035800F509F40A0319F50A0130F6007608A10632
:10036800A201A301720873040319BB29BC29F3294C
:10037800A001A00ACA2901300310F20DF30DFF3EB7
:10038800031DC0290130F6007608A007F31FCD2908
:10039800CE29BF2901300310A20DA30DFF3E031D76
:1003A800CF2973087502031DDB2972087402031C28
:1003B800DE29DF29E6297208F4027308031CF50315
:1003C800F502221401300310F30CF20CFF3E031D5A
:1003D800E7290130A002031DF229F329CE292108BB
:1003E8000319F729F829FD29A209A309A20A031963
:1003F800A30A2308F3002208F2000800F7000130DE
:1004080083120313850607110330F6009730F500B1
:10041800F50B0C2AF60B0C2A112A33300A128A1112
:1004280042230A128A118312031305181C2A1D2A53
:10043800282A0A128A11F4220A128A11F50077086A
:10044800840075088000322A0A128A11F4220A12DE
:100458008A11F50074088400750880000330F600DE
:100468009730F500F50B362AF60B362A3B2A83120D
:10047800031307111A30F600F830F500F50B422A7D
:10048800F60B422A000008000A128A11DF220A121B
:100498008A110A128A113A230A128A110A128A1137
:1004A80007230A128A110A128A111A230A128A11B8
:1004B8007A3083120313B1003108F4007B300A123A
:1004C8008A1102220A128A117A0883120313B100D0
:1004D8003108AD007B080A128A112D210A128A11EF
:1004E8005C2A0A128A110C28F500F401932A740870
:1004F800750784000A128A11C6220A128A11831209
:10050800031399000130F2007208F4070330F30076
:100518009730F200F20B8E2AF30B8E2A932A740876
:10052800750784000A128A11C6220A128A11003A33
:10053800031D9F2AA02A7B2A0800F601F701721CD6
:10054800A62AA72AAD2A7408F6070318F70A750819
:10055800F70701300310F40DF50DFF3E031DAE2A19
:1005680001300310F30CF20CFF3E031DB52A72088C
:100578007304031DC02AC12AA32A7708F30076084A
:10058800F200080002308A000408840A8207003456
:1005980050344F345434203431343A342034003415
:1005A80050344F345434203432343A342034003404
:1005B8002034203400348316031385018601071183
:1005C800880183120313071583160317880189010D
:1005D80083120313850186018701880189010800B8
:1005E80083160313141CF92AFA2AF42A0330F30099
:1005F8009730F200F20BFE2AF30BFE2A032B83122C
:10060800031313080800831603139816181283128D
:10061800031398171816831603138C1683120313E3
:100628008C120C30831603139900080083160313E9
:100638008712831203139401141094101411941147
:100648001412941683160313940187110800831259
:1006580003138C1E302B312B332B1A08860071089C
:100668008A00700E8300FE0E7E0E090083160313A7
:100678000F168F160F17E8308B000800F20072086B
:0A06880083120313930008000134ED
:04400E00D420FF3F7C
:00000001FF
